:1000000005C100000C949E390C94C9390C94F43944
:100010000C941F3A0C944A3A0C94753A0C94A03AFA
:100020000C94CB3A24C1000022C1000020C1000082
:100030001EC100001CC100001AC1000018C1000050
:1000400016C1000014C1000012C1000010C1000060
:100050000EC100000CC100000AC100000C94F63A69
:1000600006C100000C94F23E0C94283F00C1000031
:10007000FEC00000FCC00000FAC00000F8C0000094
:10008000F6C00000F4C00000F2C00000F0C00000A4
:100090000C947E3F0C94B43FEAC00000E8C000001E
:1000A000E6C00000E4C00000E2C00000E0C00000C4
:1000B000DEC00000DCC00000DAC00000D8C00000D4
:1000C000D6C00000D4C000000C946A350C940A40DD
:1000D0000C944040CCC000000C9496400C94CC4052
:1000E000C6C0000000000A0B02090C0D0E08070331
:1000F00004010000000000000000000000000000FB
:1001000000000000000000000000000000000000EF
:1001100012111000000000000000000000000000AC
:100120000000000000000000000001021020200874
:100130000810204010204080020102010804020142
:1001400001020408102040808040201008040201B1
:10015000800402018040201008040201080402010A
:100160000102040810204080010204081020408091
:1001700005050505070508080808020202020A0A23
:100180000808040404040101010101010101030341
:10019000030303030303040707070C0C0C0C0C0CEC
:1001A0000C0C0202020206060606060606060B0BE9
:1001B0000B0B0B0B0B0B000020002300260029006B
:1001C0002C002F003200000100000301060109018C
:1001D00000002200250028002B002E0031003400F2
:1001E00002010000050108010B01000021002400AC
:1001F00027002A002D003000330001010000040117
:1002000007010A01513FDD3F6940F54011241FBE3F
:10021000CFEFD1E2DEBFCDBF00E00CBF13E0A0E026
:10022000B2E0E8E6F3E800E00BBF02C007900D92F1
:10023000A83BB107D9F72BE0A8EBB3E001C01D92B2
:10024000A638B207E1F711E0C6E0D1E000E006C051
:1002500021970109802FFE010E948141C230D10700
:1002600080E00807A9F70E9458360C94B241C8CE26
:10027000611102C00C94373D6130E1F362E0FACFC6
:10028000662319F061E00C94733D60E0FCCFCF92DF
:10029000DF92EF92FF92CF93882351F16A017B01A5
:1002A000CFEFC80F20E030E0A901CB01B6010E94DA
:1002B0004C3787FF11C0C701B60190580E945537CF
:1002C0009B01AC016C2F70E090E080E0CF91FF903B
:1002D000EF90DF90CF90B2C0C701B6010E945037B7
:1002E0008C2FCF91FF90EF90DF90CF900C94FD3B3F
:1002F000CF91FF90EF90DF90CF9008950F931F93D1
:100300008B019C0183E036952795179507958A9573
:10031000D1F708541C4F462F477021E030E0F90117
:1003200002C0EE0FFF1F4A95E2F7AF01F8012081EE
:100330002423CB010196211102C090E080E01F919F
:100340000F9108950F931F938B019C0183E03695C5
:100350002795179507958A95D1F7677081E090E00A
:1003600001C0880F6A95EAF7F801E854FC4F208134
:10037000452B31F48095822380831F910F9108953E
:10038000822BFACF2F923F924F925F926F927F9281
:100390008F929F92AF92BF92CF92DF92EF92FF9295
:1003A0000F931F93CF93DF93D62EC72E782E692EEF
:1003B00049015A01280161E08D2D0E94373DCD2D64
:1003C000DC2D8E010F5F1F4FA8016D2D7C2D872D19
:1003D000962DB8DF20E030E0A901C201B7010E94EC
:1003E0008638181664F4C201B7010E9455372B01F4
:1003F000C501B4010E945537A201CE0123D0C80126
:10040000DF91CF911F910F91FF90EF90DF90CF90F0
:10041000BF90AF909F908F907F906F905F904F9024
:100420003F902F900895882341F08150682F70E00D
:1004300090E080E050E040E085CF0895862FB9013C
:100440000C94FD3B9C01FC01EC51FF4FE491E15009
:10045000E231E0F4F0E08827EF5CFD4F8F4F0C9421
:10046000814143024A024D026402790246028E0231
:100470009A029E02B502CA02DF02F6020B0346028E
:10048000200337034C0384B5806884BD60E0822F6D
:100490000C94733D84B58062F8CF809180008C7F8E
:1004A00082608093800080918100807E8061682BD3
:1004B0006093810050938700409386008091800074
:1004C000806880938000E2CF809180008C7F826082
:1004D0008093800080918100807E8061682B609392
:1004E0008100509387004093860080918000806255
:1004F000E8CF809180008C7F826080938000809123
:100500008100807E8061682B60938100509387001A
:1005100040938600809180008860D3CF8091B000A6
:1005200080688093B0008091B100887F682B6093D1
:10053000B100ACCF8091B0008062F3CF8091900089
:100540008C7F82608093900080919100807E80619A
:10055000682B609391005093970040939600809190
:10056000900080688093900091CF809190008C7F64
:1005700082608093900080919100807E8061682BE2
:100580006093910050939700409396008091900063
:100590008062E8CF809190008C7F82608093900091
:1005A00080919100807E8061682B609391005093D0
:1005B000970040939600809190008860D3CF8091FF
:1005C000A0008C7F82608093A0008091A100807E3B
:1005D0008061682B6093A1005093A7004093A60010
:1005E0008091A00080688093A00050CF8091A000EF
:1005F0008C7F82608093A0008091A100807E8061CA
:10060000682B6093A1005093A7004093A6008091AF
:10061000A0008062E8CF8091A0008C7F82608093F0
:10062000A0008091A100807E8061682B6093A10072
:100630005093A7004093A6008091A0008860D3CF7C
:10064000809120018C7F8260809320018091210124
:10065000807E8061682B6093210150932701409335
:100660002601809120018068809320010FCF809126
:1006700020018C7F82608093200180912101807E07
:100680008061682B609321015093270140932601DC
:10069000809120018062E8CF809120018C7F826070
:1006A0008093200180912101807E8061682B60937E
:1006B00021015093270140932601809120018860F9
:1006C000D3CFCF93DF93EC0170E060E06C177D0730
:1006D0000CF5072E000C880B990B0E94833720E045
:1006E00030E0A9010E94D53620E030E0A9010E9447
:1006F000D53620E030E040E450E40E94D53620E0DA
:1007000030E040E450E40E94D4360E9450376F5FDE
:100710007F4FDCCFDF91CF910895CF93DF9380910E
:10072000D1039091D2030E94A03DEC018091D703A8
:100730009091D803C6DF8091D3039091D4030E9497
:10074000A03D019771F48091D5039091D603219734
:1007500071F401969093D6038093D503DF91CF91E6
:1007600008958091D5039091D603CD2B91F30197F5
:10077000F1CFCF93DF938091C9039091CA030E9478
:10078000A03DEC018091CF039091D0039ADF80913E
:10079000CB039091CC030E94A03D019771F480910E
:1007A000CD039091CE03219771F401969093CE03DF
:1007B0008093CD03DF91CF9108958091CD039091E7
:1007C000CE03CD2B91F30197F1CFCF93DF9380919F
:1007D000C1039091C2030E94A03DEC018091C70328
:1007E0009091C8036EDF8091C3039091C4030E946F
:1007F000A03D019771F48091C5039091C6032197A4
:1008000071F401969093C6038093C503DF91CF9155
:1008100008958091C5039091C603CD2B91F3019764
:10082000F1CFCF93DF938091CB039091CC030E94C3
:10083000A03DEC018091CF039091D00342DF8091E5
:10084000C9039091CA030E94A03D019771F4809161
:10085000CD039091CE03CD2B71F401969093CE03EE
:100860008093CD03DF91CF9108958091CD03909136
:10087000CE03219791F30197F1CFCF93DF9380912E
:10088000C3039091C4030E94A03DEC018091C70373
:100890009091C80316DF8091C1039091C2030E941A
:1008A000A03D019771F48091C5039091C603CD2BB3
:1008B00071F401969093C6038093C503DF91CF91A5
:1008C00008958091C5039091C603219791F30197F4
:1008D000F1CFCF93DF938091D3039091D4030E9403
:1008E000A03DEC018091D7039091D803EADE80917E
:1008F000D1039091D2030E94A03D019771F48091A1
:10090000D5039091D603CD2B71F401969093D60325
:100910008093D503DF91CF9108958091D503909175
:10092000D603219791F30197F1CF0F931F93CF93A4
:10093000DF938C01EC0183E0CC0FDD1F8A95E1F79A
:10094000CF53DC4F798368835B834A8388819981A5
:1009500060E00E94373D8A819B8160E00E94373DC4
:100960008881998161E00E94733D8A819B8161E069
:100970000E94733D01301105D9F10230110509F4CF
:1009800066C0012B09F092C08091C1039091C2030F
:1009900002978431910530F58B5F9C4FFC0180817B
:1009A000082E000C990B41E050E06DE374E00E94CA
:1009B00024398091C3039091C40302978431910537
:1009C000A0F48B5F9C4FFC018081082E000C990BDA
:1009D00041E050E065EE73E0DF91CF911F910F9100
:1009E0000C9424398FEF9FEFDECF8FEF9FEFF0CF86
:1009F0008091C9039091CA0302978431910508F54B
:100A00008B5F9C4FFC018081082E000C990B41E00C
:100A100050E061E174E00E9424398091CB03909111
:100A2000CC0302978431910578F48B5F9C4FFC01D5
:100A30008081082E000C990B41E050E069EB73E0D7
:100A4000CBCF8FEF9FEFE3CF8FEF9FEFF5CF80916D
:100A5000D1039091D20302978431910508F58B5F01
:100A60009C4FFC018081082E000C990B41E050E066
:100A700069E674E00E9424398091D3039091D403F5
:100A800002978431910578F48B5F9C4FFC01808143
:100A9000082E000C990B41E050E06DE873E09CCF0C
:100AA0008FEF9FEFE3CF8FEF9FEFF5CFDF91CF91E8
:100AB0001F910F91089523E0880F991F2A95E1F760
:100AC000FC01EF53FC4F84819581089590E080E014
:100AD00008950F931F93009709F489C0611571055C
:100AE00009F485C00091D8021091D9022091DA0250
:100AF0003091DB020E3F1F4F2F4F3F4F09F068C070
:100B00004FEF5FEFBA014093D8025093D902609340
:100B1000DA027093DB024091D8025091D9026091C1
:100B2000DA027091DB02DC011296ED91FC9180817A
:100B30009181A281B38180937A0590937B05A093E4
:100B40007C05B0937D0584819581A681B7818093D2
:100B5000760590937705A0937805B0937905808505
:100B60009185A285B3858093720590937305A093B8
:100B70007405B093750584859585A685B7858093A2
:100B80006E0590936F05A0937005B0937105109258
:100B90006A0510926B0510926C0510926D050E940B
:100BA000F41B89E19CE19093DA038093D90390933D
:100BB000DC038093DB030E94EB1A009731F421E001
:100BC00030E030937F0520937E051F910F910895AB
:100BD0000091D8021091D9022091DA023091DB0203
:100BE000DB010D931D932D933C93139794CF8FEFBF
:100BF0009FEFEBCF8F929F92AF92BF92CF92DF92F7
:100C0000EF92FF921F93CF93DF934B015C01109102
:100C1000810582E090E090937F0580937E058114AA
:100C20009104A104B10441F480918105811104C0B3
:100C300080918005C1E08111C0E0C12CD12C7601EA
:100C400080918105811106C080918005811102C0CB
:100C5000CC23D9F083E090E090937F0580937E05CC
:100C6000CC2381F1CCE9DFEF111102C00E947E1F7D
:100C7000CE01DF91CF911F91FF90EF90DF90CF9049
:100C8000BF90AF909F908F9008956AE070E080E0F1
:100C900090E00E94653B80E1C80E87E2D81EE11C0F
:100CA000F11C8FEF88169806A806B80631F0C1E04F
:100CB0008C149D04AE04BF0408F0C0E080E00E94E4
:100CC0001F1BBECFD0E0C0E0CFCFCF92DF92EF921C
:100CD000FF920F931F93CF93DF938F3F910511F0F6
:100CE00008F046C020917E0530917F052330310504
:100CF00039F020917E0530917F052130310531F4A6
:100D000024E030E030937F0520937E056A017B016B
:100D1000EC0182309105B8F011E0AE01C701B601D7
:100D20000E94EA1AAB01BC0190E080E0112311F1AE
:100D3000CE01DF91CF911F910F91FF90EF90DF9047
:100D4000CF900C9493218C01000F111F07521C4F60
:100D5000D8018D919C91892BF9F20E949A210297DA
:100D6000D9F6D801ED91FC91CE011995182FD5CF68
:100D70008FEF9FEFDF91CF911F910F91FF90EF9039
:100D8000DF90CF90089580E00C941F1BCF93DF93EA
:100D900086E090E090937F0580937E050E94781B0B
:100DA000EC01E9EDF3E084E0DF011D928A95E9F7BB
:100DB0000E94161F10927F0510927E05CE01DF91D2
:100DC000CF910895809180050895809169050895D7
:100DD0006093D8027093D9028093DA029093DB0279
:100DE00090E080E008952F923F924F925F926F9231
:100DF0007F928F929F92AF92BF92CF92DF92EF92AB
:100E0000FF920F931F93CF93DF93CDB7DEB7CB54F1
:100E1000D1090FB6F894DEBF0FBECDBF26967FAFC7
:100E20006EAF269728965FAF4EAF28973E8B2D8BDF
:100E30002C96FFAEEEAE2C97FB01E150F04CEE0F7E
:100E4000FF1FEE0FFF1FE80FF91F80809180A28027
:100E5000B3808F8A988EA98EBA8EB501A4014427DB
:100E600077FD439555276627772729964FAF299712
:100E7000F901E150F04CEE0FFF1FEE0FFF1F289617
:100E8000AEACBFAC2897EA0DFB1DC080D180E280DC
:100E9000F380CB8EDC8EED8EFE8EB701A60144274B
:100EA00077FD43955527662777272A964FAF2A97D0
:100EB000188B0F87F80130E020E02C96EEACFFACE9
:100EC0002C972E153F050CF43FC022969FAF8EAF96
:100ED00022971A8B098B312C212C812C912C5401B7
:100EE00083948D829E82AF82B88626968EAC9FAC0C
:100EF0002697281439047CF129969FAC29972A96C5
:100F0000AFAC2A9730E020E041E050E060E070E0D4
:100F10009A10F5C1C55BDF4F0FB6F894DEBF0FBE68
:100F2000CDBFDF91CF911F910F91FF90EF90DF9098
:100F3000CF90BF90AF909F908F907F906F905F9079
:100F40004F903F902F90089511921192119211920B
:100F50002F5F3F4FB2CF2296EEADFFAD229781912A
:100F60009191A191B1912296FFAFEEAF22978F8818
:100F7000988CA98CBA8CB7FE23C04D815E816F819D
:100F8000788541505109610971095A016B01A81A0C
:100F9000B90ACA0ADB0AD601C50121E0CD80DE808C
:100FA000EF80F8848C159D05AE05BF0508F020E0A4
:100FB000822E912CB12CA12C8D829E82AF82B8867C
:100FC0005D01CC24DD24A8A2B9A2CAA2DBA29C01A7
:100FD000AD01442755272CA33DA34EA35FA32C9618
:100FE000EEADFFAD2C97E219F3098D889E888E1621
:100FF0009F060CF4F4012896AEACBFAC289724965B
:10100000BFAEAEAE2497C988DA88DC8ACB8A1E864A
:101010001D86812C912C5401839489869A86AB86F7
:10102000BC86812C912C5401CD84DE84CE16DF0643
:1010300004F1F7FF02C0F0E0E0E0E20DF31D2C96B2
:10104000EEACFFAC2C97EE15FF0554F4EE0FFF1F2E
:10105000EE0FFF1FE00FF11F80829182A282B38208
:101060002FEF221A320AE989FA893496FA8BE98B32
:101070003CCF2496AEADBFAD2497CD90DD90ED90E2
:10108000FD902496BFAFAEAF24972B8D3C8D4D8D38
:101090005E8D57FF22C089859A85AB85BC850197F7
:1010A000A109B109AC01BD014C195D096E097F09A7
:1010B0006A017B0181E029853A854B855C85C216F2
:1010C000D306E406F50608F080E0482F50E070E013
:1010D00060E049875A876B877C87B7018827992703
:1010E00068A779A78AA79BA7EE24FF2428A139A186
:1010F0004AA15BA1C701B6010E9450412B013C01EE
:101100002CA13DA14EA15FA168A579A58AA59BA5AB
:101110000E9450416CA77DA78EA79FA7AB89BC8971
:101120004D915D916D917D91BC8BAB8BDB01CA01C3
:10113000880D991DAA1DBB1D89839A83AB83BC832F
:1011400091E09F8F29813A814B815C812815390577
:101150004A055B0508F01F8E2CA13DA14EA15FA1A1
:10116000C701B6010E9450416B017C0189809A80C1
:10117000AB80BC808C0C9D1CAE1CBF1C89829A82EB
:10118000AB82BC8252019924882488AA99AAAAAA6F
:10119000BBAA29813A814B815C81280D391D4A1DEA
:1011A0005B1D2CAB3DAB4EAB5FAB8CA49DA4AEA442
:1011B000BFA454019924882488AE99AEAAAEBBAED0
:1011C000280D391D4A1D5B1D2CAF3DAF4EAF5FAFE3
:1011D000AB89BC8914972D933D934D935C931397E2
:1011E00028A139A14AA15BA168A579A58AA59BA5DB
:1011F0000E9450419F8C690D711D811D911D23011D
:1012000066247724460E571E681E791E2CA53DA520
:101210004EA55FA54A01AA24BB24840C951CA61CDC
:10122000B71C81E090E0A0E0B0E049815A816B8179
:101230007C814C155D056E057F0518F080E090E01F
:10124000DC01880D991DAA1DBB1D41E050E060E046
:1012500070E088A899A8AAA8BBA8CCA8DDA8EEA889
:10126000FFA8C814D904EA04FB0418F040E050E0D9
:10127000BA01840F951FA61FB71F812C912C540112
:101280008394C8ACD9ACEAACFBAC2CAD3DAD4EAD53
:101290005FAD2C153D054E055F0518F0812C912C96
:1012A0005401880E991EAA1EBB1E4D855E854F5F98
:1012B0005F4F5E874D87B8CEEF85F889C190D1909A
:1012C000E190F190F88BEF87DB01CA010197A1094A
:1012D000B1098C199D09AE09BF09349780839183A8
:1012E000A283B383E1E084179507A607B70708F048
:1012F000E0E04E2F50E070E060E02F5F3F4F2C9613
:101300008EAC9FAC2C9728153905B4F203CE2F92E2
:101310003F924F925F926F927F928F929F92AF9285
:10132000BF92CF92DF92EF92FF920F931F93CF93D2
:10133000DF9300D01F92CDB7DEB78B015C834B8368
:10134000FB01E150F04CEE0FFF1FEE0FFF1FE80F07
:10135000F91F408151816281738177FD27C04C0163
:10136000B12CA12CC12CD12C7601A016B10664F5AC
:10137000F40161917191819191914F010E948137A6
:101380004B815C810E948C389B01AC01C701B60186
:101390000E94D5366B017C012B813C81205E3F4F42
:1013A0003C832B833FEFA31AB30ADFCF9A83898351
:1013B000312C212C81E090E0A0E0B0E0C12CD12CB8
:1013C000760120163106CCF0C701B6010F900F90C0
:1013D0000F900F90DF91CF911F910F91FF90EF90A1
:1013E000DF90CF90BF90AF909F908F907F906F9045
:1013F0005F904F903F902F900895E981FA8141903E
:10140000519061907190FA83E98340945094609474
:10141000709453014201880E991EAA1EBB1EC5017D
:10142000B4010E9481374B815C810E948C389B0102
:10143000AC01C701B6010E94D4366B017C0181E08A
:1014400084149504A604B70408F080E090E0B0E0AE
:10145000A0E02B813C81205E3F4F3C832B833FEFFC
:10146000231A330AAECF855D9E4FFC0180819181A6
:101470000197A1F4F90180819181A281B381FB01DF
:1014800080839183A283B383F90184819581A681AE
:10149000B781FA0180839183A283B3830895CF92A9
:1014A000DF92EF92FF926B017C019F7720E030E0AA
:1014B00040E859E50E944C3787FF2BC020E030E020
:1014C00040E05FE3C701B6010E94863887FD0EC089
:1014D00020E030E040E05FE3C701B6010E94D5366E
:1014E000FF90EF90DF90CF900C94BE3720E030E07B
:1014F00040E05FEBC701B6010E948638181684F4FD
:1015000020E030E0A901C701B6010E94C0386B019C
:101510007C01C701B601FF90EF90DF90CF90089556
:1015200020E030E040E05FE3C701B6010E94D4361E
:10153000FF90EF90DF90CF900C943937E091A104A9
:10154000F091A204ACEEBAE04D915D916D917C9169
:10155000139740835183628373834091440B50916E
:10156000450B6091460B7091470B4483558366830E
:10157000778350964D915D916D917C915397408703
:101580005187628773871C964D915D916D917C9117
:101590001F97448755876687778790964D915D9111
:1015A0006D917C919397408B518B628B738B5C9682
:1015B0008D919D910D90BC91A02D848B958BA68BC8
:1015C000B78B08952F923F924F925F926F927F92C6
:1015D0008F929F92AF92BF92CF92DF92EF92FF9243
:1015E0000F931F93CF93DF93CDB7DEB7C254D109CA
:1015F0000FB6F894DEBF0FBECDBF0091400510912D
:1016000041050130110509F06BC1809128059091C9
:101610002905A0912A05B0912B0580903005909066
:101620003105A0903205B0903305C0902C05D090C4
:101630002D05E0902E05F0902F058F3F2FEF92079C
:10164000A207B20709F029C1C701B6016F5F7F4F3A
:101650008F4F9F4F0E948137A50194010E94C0388F
:1016600020E030E040E85FE40E94C0386093250449
:101670007093260480932704909328048091EB0AAA
:101680008150823008F444C180E08093EB0A01303D
:10169000110509F098C0C0904802D0904902E0902E
:1016A0004A02F0904B02A701960160917C0A70916A
:1016B0007D0A80917E0A90917F0A0E944C37882390
:1016C00041F0C0927C0AD0927D0AE0927E0AF092AC
:1016D0007F0A90E080E0EFD9092E000CAA0BBB0B2B
:1016E0008093500B9093510BA093520BB093530BDC
:1016F0004091840250918502609186027091870228
:101700004D835E836F83788789839A83AB83BC83A1
:1017100022E0E22EF12C0CE21BE021E030E0AE01F1
:101720004F5F5F4F61E070E0CE0105965CDBC090DB
:101730005402D0905502E0905602F090570250E0CB
:1017400040E062E070E0C801E2DD20E030E040E02F
:101750005FE20E94C0389B01AC01C701B6010E9444
:10176000D4366B017C01C092140BD092150BE09221
:10177000160BF092170BAC019B0160913C0270912B
:101780003D0280913E0290913F020E94C0386093DA
:101790003C0B70933D0B80933E0B90933F0BA70146
:1017A0009601609100027091010280910202909175
:1017B00003020E94C0386093400B7093410B8093EA
:1017C000420B9093430B2091580B3091590B409151
:1017D0005A0B50915B0B6091400B7091410B8091C3
:1017E000420B9091430B0E94D436209130023091ED
:1017F000310240913202509133020E94C0386B0195
:101800007C01C092440BD092450BE092460BF092C3
:10181000470B2091540B3091550B4091560B509132
:10182000570B60913C0B70913D0B80913E0B90915A
:101830003F0B0E94D536A70196010E94D5366B0159
:101840007C01C092100BD092110BE092120BF0921F
:10185000130B4B015C01E894B7F88092180B90923F
:10186000190BA0921A0BB0921B0B4090580250908B
:10187000590260905A0270905B02A30192010E948B
:10188000863818160CF046C04092100B5092110B7F
:101890006092120B7092130B4DC0BC01CD016F5FB3
:1018A0007F4F8F4F9F4F0E948137A50194010E9467
:1018B000C0382B013C01C701B6010E948137A50148
:1018C00094010E94C03820E030E040E85FE40E94CC
:1018D000C0389B01AC01C301B2010E94D536C6CE0F
:1018E0000115110509F0CACEE0915504F091560496
:1018F0000190F081E02D80819181A281B381E091FE
:101900004305F091440580839183A283B383B6CECF
:1019100083E0BBCE40905C0250905D0260905E021E
:1019200070905F02A3019201C701B6010E944C377B
:1019300087FDAACF80914005909141050197F9F468
:10194000C090100BD090110BE090120BF090130B85
:1019500020E030E0A901C701B6010E9486381816C0
:101960000CF0FDC120E030E040E450E4C501B401DA
:101970000E94863818160CF0F2C11092D40A809199
:10198000D40A813009F40BC2823009F42CC28111CF
:101990001DC020ED32E0AE014F5E5F4FBE016B5EB9
:1019A0007F4F85E194E05FDD809140059091410596
:1019B000019761F48091EB0A882309F4EDC183302B
:1019C00009F0E6C181E090E08093EB0A65E070E009
:1019D00080E090E00E947E018C019093C70A809382
:1019E000C60A6091100B7091110B8091120B9091AF
:1019F000130B9F7720916002309161024091620247
:101A0000509163020E94C0386B017C0120E030E0FD
:101A10004FE753E40E944C3718160CF408C2C092EA
:101A2000100BD092110BE092120BF092130B20E0EE
:101A300030E0A9016091100B7091110B8091120B95
:101A40009091130B0E94863887FF08C01092100BEC
:101A50001092110B1092120B1092130B4091100B5D
:101A60005091110B6091120B7091130BC8010E94E1
:101A700047018091400590914105019709F005C10A
:101A80002091140B3091150B4091160B5091170BB0
:101A900060910C0270910D0280910E0290910F02E4
:101AA0000E94C0386093EC0A7093ED0A8093EE0AAE
:101AB0009093EF0A6D897E898F89988DF0DC6B0198
:101AC0007C01C092140BD092150BE092160BF09291
:101AD000170B20E030E040E853E40E944C376FEFF2
:101AE00087FF0EC020E030E0A901C701B6010E94C7
:101AF000863860E087FD04C0C701B6010E945537F3
:101B00008EE10E94400169897A898B899C89C7DCB2
:101B10006B017C01C092140BD092150BE092160B56
:101B2000F092170B20E030E040E853E40E944C377D
:101B30006FEF87FF0EC020E030E0A901C701B601BA
:101B40000E94863860E087FD04C0C701B6010E948C
:101B500055378FE10E944001C0904C02D0904D0259
:101B6000E0904E02F0904F02A70196016091720A38
:101B70007091730A8091740A9091750A0E944C3793
:101B8000882341F0C092720AD092730AE092740ADC
:101B9000F092750A81E090E00E945B05092E000C2E
:101BA000AA0BBB0B80934C0B90934D0BA0934E0B49
:101BB000B0934F0B40918C0250918D0260918E0238
:101BC00070918F024D835E836F83788789839A83B8
:101BD000AB83BC8392E0E92EF12C04E21BE021E010
:101BE00030E0AE014F5F5F4F61E070E0CE010596DF
:101BF000FAD8C0906402D0906502E0906602F0903E
:101C0000670250E040E062E070E0C80180DB20E065
:101C100030E040E85EE20E94C0389B01AC01C701A1
:101C2000B6010E94D4366B017C01C092140BD09295
:101C3000150BE092160BF092170BAC019B01609113
:101C400040027091410280914202909143020E94B1
:101C5000C0386093F00A7093F10A8093F20A90936F
:101C6000F30AA70196016091040270910502809128
:101C70000602909107020E94C0386093F40A7093A4
:101C8000F50A8093F60A9093F70A2091600B309141
:101C9000610B4091620B5091630B6091F40A70915B
:101CA000F50A8091F60A9091F70A0E94D4362091A5
:101CB00034023091350240913602509137020E9431
:101CC000C0386B017C01C092F80AD092F90AE09208
:101CD000FA0AF092FB0A20915C0B30915D0B409167
:101CE0005E0B50915F0B6091F00A7091F10A809148
:101CF000F20A9091F30A0E94D536A70196010E943C
:101D0000D5366B017C01C092180BD092190BE09272
:101D10001A0BF0921B0B4B015C01E894B7F8809210
:101D2000100B9092110BA092120BB092130B4090DB
:101D300068025090690260906A0270906B02A30181
:101D400092010E94863818160CF07EC04092180B43
:101D50005092190B60921A0B70921B0B85C020E0F9
:101D600030E0A901C701B6010E944C3787FF0EC0C1
:101D700020E030E040E450E4C501B4010E94863820
:101D8000181624F481E08093D40AF9CD82E0FBCFC9
:101D9000082E000C990B18CE82E090E015CE28ECAE
:101DA00032E0AE014F5E5F4FBE016B5E7F4F85E15B
:101DB00094E059DB8091400590914105019709F02D
:101DC00005CE8091EA0A882359F0833029F481E016
:101DD00090E08093EA0AFACD082E000C990BF9CF17
:101DE00082E090E0F6CF20EC32E0AE014F5E5F4F34
:101DF000BE016B5E7F4F85E194E035DB809140054D
:101E000090914105019709F0E1CD8091E90A88237D
:101E100059F0833029F481E090E08093E90AD6CD2F
:101E2000082E000C990BF9CF82E090E0F6CF80E00D
:101E300090E0AFE7B3E48093100B9093110BA09365
:101E4000120BB093130BF3CD40906C0250906D02C7
:101E500060906E0270906F02A3019201C701B601FB
:101E60000E944C3787FD72CF8091400590914105CB
:101E70000197F9F4C090180BD090190BE0901A0B51
:101E8000F0901B0B20E030E0A901C701B6010E94D1
:101E9000863818160CF0FEC120E030E040E450E433
:101EA000C501B4010E94863818160CF0F3C11092D7
:101EB000D50A8091D50A813009F40CC2823009F428
:101EC0002DC281111DC028EB32E0AE01475F5F4F8C
:101ED000BE01635F7F4F85E194E0C5DA80914005E4
:101EE00090914105019761F48091E80A882309F4F3
:101EF000EEC1833009F0E7C181E090E08093E80A09
:101F000069E070E080E090E00E947E018C01909397
:101F1000BF0A8093BE0A6091180B7091190B8091D3
:101F20001A0B90911B0B9F772091700230917102D8
:101F300040917202509173020E94C0386B017C0183
:101F400020E030E04FE753E40E944C3718160CF4C1
:101F500009C2C092100BD092110BE092120BF092BA
:101F6000130B20E030E0A9016091100B7091110B70
:101F70008091120B9091130B0E94863887FF08C046
:101F80001092100B1092110B1092120B1092130B57
:101F90004091100B5091110B6091120B7091130B2B
:101FA000C8010E9447018091400590914105019729
:101FB00009F006C12091140B3091150B4091160BBE
:101FC0005091170B609110027091110280911202D2
:101FD000909113020E94C0386093FC0A7093FD0A2E
:101FE0008093FE0A9093FF0A6D857E858F85988980
:101FF00056DA6B017C01C092140BD092150BE09263
:10200000160BF092170B20E030E040E853E40E94FA
:102010004C376FEF87FF0EC020E030E0A901C70109
:10202000B6010E94863860E087FD04C0C701B60192
:102030000E94553780E20E94400169857A858B8530
:102040009C852DDA6B017C01C092140BD092150B8C
:10205000E092160BF092170B20E030E040E853E4DA
:102060000E944C376FEF87FF0EC020E030E0A901DF
:10207000C701B6010E94863860E087FD04C0C70131
:10208000B6010E94553781E20E944001C090500283
:10209000D0905102E0905202F0905302A7019601B5
:1020A0006091680A7091690A80916A0A90916B0A3E
:1020B0000E944C37882341F0C092680AD092690A86
:1020C000E0926A0AF0926B0A82E090E00E945B055F
:1020D000092E000CAA0BBB0B8093480B9093490B65
:1020E000A0934A0BB0934B0B409188025091890208
:1020F00060918A0270918B024D835E836F83788733
:1021000089839A83AB83BC8382E0E82EF12C04E3BD
:102110001BE021E030E0AE014F5F5F4F61E070E017
:10212000CE0105960E94F306C0907402D09075020D
:10213000E0907602F090770250E040E062E070E0DC
:10214000C801E5D820E030E040E05FE20E94C038FE
:102150009B01AC01C701B6010E94D4366B017C0122
:10216000C092140BD092150BE092160BF092170B45
:10217000AC019B016091440270914502809146023E
:10218000909147020E94C0386093000B7093010B3E
:102190008093020B9093030BA701960160910802B4
:1021A0007091090280910A0290910B020E94C0383E
:1021B0006093040B7093050B8093060B9093070BB1
:1021C0002091680B3091690B40916A0B50916B0B19
:1021D0006091040B7091050B8091060B9091070B99
:1021E0000E94D436209138023091390240913A024F
:1021F00050913B020E94C0386B017C01C092080BD9
:10220000D092090BE0920A0BF0920B0B2091640B19
:102210003091650B4091660B5091670B6091000BFC
:102220007091010B8091020B9091030B0E94D536A7
:10223000A70196010E94D5366B017C01C092180B54
:10224000D092190BE0921A0BF0921B0B4B015C0120
:10225000E894B7F88092100B9092110BA092120B99
:10226000B092130B409078025090790260907A02FD
:1022700070907B02A30192010E94863818160CF020
:102280007EC04092180B5092190B60921A0B7092FC
:102290001B0B85C020E030E0A901C701B6010E94F8
:1022A0004C3787FF0EC020E030E040E450E4C50129
:1022B000B4010E948638181624F481E08093D50A70
:1022C000F8CD82E0FBCF082E000C990B17CE82E0F0
:1022D00090E014CE20EB32E0AE01475F5F4FBE01CD
:1022E000635F7F4F85E194E0BED880914005909177
:1022F0004105019709F004CE8091E70A882359F03F
:10230000833029F481E090E08093E70AF9CD082E2C
:10231000000C990BF9CF82E090E0F6CF28EA32E08A
:10232000AE01475F5F4FBE01635F7F4F85E194E081
:102330009AD88091400590914105019709F0E0CD30
:102340008091E60A882359F0833029F481E090E0F7
:102350008093E60AD5CD082E000C990BF9CF82E0C8
:1023600090E0F6CF80E090E0AFE7B3E48093100B0D
:102370009093110BA093120BB093130BF2CD4090DE
:102380007C0250907D0260907E0270907F02A301DB
:102390009201C701B6010E944C3787FD72CF809130
:1023A0004005909141050197F9F4C090180BD09029
:1023B000190BE0901A0BF0901B0B20E030E0A90104
:1023C000C701B6010E94863818160CF0C7C320E07A
:1023D00030E040E450E4C501B4010E94863818168C
:1023E0000CF0BCC31092D60A8091D60A813009F451
:1023F000D5C3823009F4F5C381111BC020EA32E055
:102400004CE15BE060E27BE085E194E02CD88091D8
:10241000400590914105019761F48091E50A882378
:1024200009F4B9C3833009F0B2C381E090E080932E
:10243000E50A6AE070E080E090E00E947E018C0195
:102440009093B70A8093B60A6091180B7091190B9C
:1024500080911A0B90911B0B9F77209180023091F5
:10246000810240918202509183020E94C0386B0128
:102470007C0120E030E04FE753E40E944C3718160F
:102480000CF4D2C3C092100BD092110BE092120B3D
:10249000F092130B20E030E0A9016091100B7091D5
:1024A000110B8091120B9091130B0E94863887FFBD
:1024B00008C01092100B1092110B1092120B109278
:1024C000130B4091100B5091110B6091120B7091F6
:1024D000130BC8010E94470180914005909141056E
:1024E000019709F076C02091140B3091150B4091A3
:1024F000160B5091170B6091140270911502809188
:102500001602909117020E94C03860930C0B7093D2
:102510000D0B80930E0B90930F0B6091200B70911D
:10252000210B8091220B9091230B0E944F0A6B018B
:102530007C01C092140BD092150BE092160BF09216
:10254000170B20E030E040E853E40E944C376FEF77
:1025500087FF0EC020E030E0A901C701B6010E944C
:10256000863860E087FD04C0C701B6010E94553778
:1025700082E20E94400160911C0B70911D0B8091C2
:102580001E0B90911F0B0E944F0A6B017C01C092A1
:10259000140BD092150BE092160BF092170B20E063
:1025A00030E040E853E40E944C376FEF87FF0EC0E5
:1025B00020E030E0A901C701B6010E94863860E042
:1025C00087FD04C0C701B6010E94553783E20E940F
:1025D00040018091400590914105019709F0A4C206
:1025E00060912C0570912D0580912E0590912F05FD
:1025F0000E94813720E030E040E85FE40E94C0386C
:102600006B017C01609128057091290580912A0554
:1026100090912B050E9481379B01AC01C701B60147
:102620000E94D53620E030E0A9010E94D5360E94F4
:102630005537AB01BC0190E080E00E9465068091B7
:10264000400590914105019709F06EC260913805EF
:102650007091390580913A0590913B050E94813730
:1026600020E030E040E85FE40E94C0386B017C016C
:10267000609134057091350580913605909137054C
:102680000E9481379B01AC01C701B6010E94D5367B
:1026900020E030E0A9010E94D5360E945537AB01F9
:1026A000BC0181E090E00E94650680914005909118
:1026B0004105019709F038C2E0915504F0915604A4
:1026C0000190F081E02D80819181A281B3818BA75F
:1026D0009CA7ADA7BEA78091250490912604A09148
:1026E0002704B09128048FAB98AFA9AFBAAFE0919F
:1026F0002904F0912A0480809180A280B380E09127
:102700005904F0915A0470806180E0911D04F091A9
:102710001E0420803180528043801481058196817F
:102720009DABA781AEABE0911B04F0911C0411821C
:10273000108288E1E72DF62DD10101900D928A9546
:10274000E1F7E0915304F0915404508241820E94D9
:102750009E0A20E030E040E05FE3C501B4010E9442
:10276000C0386B017C0138AA2FA659A64AA67FA2C1
:1027700068A6F1017896FAABE9AB798E6A8E5B8E2A
:102780004C8E38A22F8EEF8DF8A181919191A1915D
:10279000B191F8A3EF8F8BA39CA3ADA3BEA3AB8D88
:1027A000BC8D2D913D914D915D91BC8FAB8FC7013B
:1027B000B6010E94C0382BA13CA14DA15EA10E9490
:1027C000D536E98DFA8D6193719381939193FA8F48
:1027D000E98F29A93AA98F8D98A12817390799F669
:1027E000E0915504F0915604A081B181BA8FA98F70
:1027F000A70196016BA57CA58DA59EA50E94D53647
:10280000E98DFA8D6083718382839383E091530411
:10281000F0915404108301830E94E20A0E949E0AF0
:1028200020E030E0A901C501B4010E94C0386BAFBF
:102830007CAF8DAF9EAF20E030E040E45FE3C501A8
:10284000B4010E94C0386B017C01198F0A8F072DDB
:10285000162D298D3A8D3CA32BA35B8E4C8EF10156
:1028600081919191A191B1911F0189AB9AABABABD1
:10287000BCABAB8DBC8D6D917D918D919D91BC8FCD
:10288000AB8FEBA1FCA14190519061907190FCA3A2
:10289000EBA32BAD3CAD4DAD5EAD0E94C038239691
:1028A0006CAF7DAF8EAF9FAF2397A7019601C30199
:1028B000B2010E94C0389B01AC0123966CAD7DAD86
:1028C0008EAD9FAD23970E94D53629A93AA94BA971
:1028D0005CA90E94D536D8016D937D938D939D930D
:1028E0008D01EF8DF8A1E215F30509F0B8CFE09165
:1028F0005504F091560400811181A70196016BA542
:102900007CA58DA59EA50E94D536D8016D937D939B
:102910008D939C931397E0915304F0915404BDA9B7
:10292000B0832EA921830E94E20A0E949E0A29E315
:102930003EE843E65EE3C501B4010E94C0386F8FF4
:1029400078A389A39AA32BEA3AEA4AEA5EE3C5018F
:10295000B4010E94C0386BA77CA78DA79EA729E36E
:102960003EE843EE5EE3C501B4010E94C0386BA3AC
:102970007CA38DA39EA30DA91EA9EFA5F8A9819103
:102980009191A191B191F8ABEFA78B8F9C8FAD8FF7
:10299000BE8FA9A5BAA56D917D918D919D91BAA784
:1029A000A9A7E98DFA8D4190519061907190FA8FAD
:1029B000E98FD801CD90DD90ED90FD908D012F8DA8
:1029C00038A149A15AA10E94C0384B015C012BA536
:1029D0003CA54DA55EA5C301B2010E94C0389B0174
:1029E000AC01C501B4010E94D5364B015C012BA19D
:1029F0003CA14DA15EA1C701B6010E94C0389B0158
:102A0000AC01C501B4010E94D5362B8D3C8D4D8D96
:102A10005E8D0E94D536EFA1F8A5619371938193E5
:102A20009193F8A7EFA32FA538A92216330609F032
:102A3000A4CFE0915504F09156040190F081E02D6F
:102A40008FA998ADA9ADBAAD80839183A283B383DA
:102A5000E0911B04F0911C0481E090E0918380835D
:102A60008091280590912905A0912A05B0912B0508
:102A70000196A11DB11D8093280590932905A0936F
:102A80002A05B0932B05892B8A2B8B2B99F48091E7
:102A90002C0590912D05A0912E05B0912F05019642
:102AA000A11DB11D80932C0590932D05A0932E059B
:102AB000B0932F058091250490912604A0912704BE
:102AC000B0912804E0914305F091440580839183FF
:102AD000A283B3838091340590913505A09136058A
:102AE000B09137050196A11DB11D809334059093D7
:102AF0003505A0933605B0933705892B8A2B8B2B90
:102B000099F48091380590913905A0913A05B091DA
:102B10003B050196A11DB11D8093380590933905A1
:102B2000A0933A05B0933B05CE5BDF4F0FB6F89408
:102B3000DEBF0FBECDBFDF91CF911F910F91FF90F0
:102B4000EF90DF90CF90BF90AF909F908F907F904D
:102B50006F905F904F903F902F90089520E030E06D
:102B6000A901C701B6010E944C3787FF0EC020E0C3
:102B700030E040E450E4C501B4010E9486381816E4
:102B800024F481E08093D60A2FCC82E0FBCF082E7C
:102B9000000C990B4CCC82E090E049CC28E932E063
:102BA0004CE15BE060E27BE085E194E00E94330A67
:102BB0008091400590914105019709F03ACC8091B0
:102BC000E40A882359F0833029F481E090E080936F
:102BD000E40A2FCC082E000C990BF9CF82E090E08C
:102BE000F6CF20E932E04CE15BE060E27BE085E19A
:102BF00094E00E94330A809140059091410501972D
:102C000009F017CC8091E30A882359F0833029F426
:102C100081E090E08093E30A0CCC082E000C990B25
:102C2000F9CF82E090E0F6CF80E090E0AFE7B3E448
:102C30008093100B9093110BA093120BB093130B76
:102C400029CC2F923F924F925F926F927F928F92F8
:102C50009F92AF92BF92CF92DF92EF92FF920F932B
:102C60001F93CF93DF9384E090E07BD3E5E1F4E022
:102C700088E391E0DF019C011D9221503040E1F793
:102C800080E495E097838683C3E4D5E0D09356042F
:102C9000C093550400E315E0158B048B21EA34E062
:102CA00037AF26AF2BE934E030935A042093590410
:102CB00040E255E0509358044093570442E255E0F7
:102CC00050935C0440935B044DE954E050935E04E0
:102CD00040935D044FE954E05093600440935F04D7
:102CE000F0938004E0937F04F583E48341E050E0B7
:102CF000DC014D935C9388E095E048EA54E0DC0108
:102D00004D935C9340EC54E050930B0540930A05BF
:102D100048ED54E050930D0540930C0540EF54E00E
:102D200050930F0540930E0544E5442E4BE0542E7E
:102D3000D9014D925C929187808789E193E09387D6
:102D4000828725E435E03983288340E050E060E85D
:102D50007FEB40933C0550933D0560933E05709397
:102D60003F054FE652E163E87AE3D8014D935D9366
:102D70006D937C931397C0E1D5E08EE694E5A6E1D0
:102D8000B2EF88839983AA83BB8382E295E6A5EAA2
:102D9000B2EB8093140590931505A0931605B0939C
:102DA000170580E69AE8A0EBB7EB8093180590939F
:102DB0001905A0931A05B0931B058AE19EE6A3E7C7
:102DC000B6EC80931C0590931D05A0931E05B0934F
:102DD0001F05A9E0B4E0B383A283EDEDF3E0119603
:102DE000FC93EE938EE193E09183808349EE5AE069
:102DF00053834283958384839783868391878087D7
:102E0000938782874AEE5AE0558744874BEE5AE013
:102E10005787468746EE5AE0518B408B938B828BC7
:102E2000958B848B978B868B918F808F47EE5AE0A2
:102E3000538F428F48EE5AE0558F448F43EE5AE04D
:102E4000578F468F91A380A393A382A395A384A3B6
:102E500097A386A384EE9AE091A780A785EE9AE0D7
:102E600093A782A786E295E015969C938E9314977C
:102E70001396DC93CE93129717963C932E93169746
:102E8000ECEEFAE088E6DF011D928A95E9F788E129
:102E9000F20111928A95E9F7C2E6DAE08AE8DE01EA
:102EA0001D928A95E9F7772473947092DF0A50E0B7
:102EB000252E52E0352E8091480290914902A09132
:102EC0004A02B0914B028A8F9B8FAC8FBD8F812CB1
:102ED000912C540183948D8A9E8AAF8AB88E43E0E8
:102EE00050E062E070E090E080E00E949504798E0E
:102EF00066246A946092D40A1092C00A7092E00A22
:102F000075ECC72E7AE0D72EF60110828092C10AA6
:102F10009092C20AA092C30AB092C40AE12CF12C8A
:102F20008701A801970165E070E080E090E00E94D1
:102F3000C2019093C70A8093C60AD6017C92109270
:102F4000A80A7092E20A8092A90A9092AA0AA09214
:102F5000AB0AB092AC0A61E08EE10E943801709237
:102F6000AD0A1EAE7092E10A8092A10A9092A20A66
:102F7000A092A30AB092A40A61E08FE10E943801F6
:102F80007092A50A1A867092DB0A80914C02909189
:102F90004D02A0914E02B0914F02888B998BAA8B63
:102FA000BB8B8B869C86AD86BE8643E150E062E19A
:102FB00070E081E090E00E9495047F866092D50ADF
:102FC0001092B80A7092DC0AEDEBCE2EEAE0DE2E0B
:102FD000F60110828092B90A9092BA0AA092BB0AB6
:102FE000B092BC0AA801970169E070E080E090E02F
:102FF0000E94C2019093BF0A8093BE0AD6017C92C0
:103000001EAA7092DE0A8FAA98AEA9AEBAAE61E08F
:1030100080E20E9438017BAE1EA67092DD0A8FA668
:1030200098AAA9AABAAA61E081E20E9438017BAA03
:1030300018827092D70A8091500290915102A0910B
:103040005202B09153028E839F83A887B9878982E9
:103050009A82AB82BC8245E150E064E170E082E09C
:1030600090E00E9495047D826092D60A1092B00A88
:103070007092D80AF5EBCF2EFAE0DF2EF60110821F
:103080008092B10A9092B20AA092B30AB092B40AA6
:10309000A80197016AE070E080E090E00E94C20120
:1030A0009093B70A8093B60AD6017C921EA27092C2
:1030B000DA0A8FA298A6A9A6BAA661E082E20E94C7
:1030C00038017BA61E8E7092D90A8F8E98A2A9A273
:1030D000BAA261E083E20E9438017BA2F10184A1DF
:1030E00095A1A6A1B7A1F20180839183A283B383A6
:1030F000F101808D918DA28DB38DF2018483958332
:10310000A683B783F10180A591A5A2A5B3A5F2017D
:1031100080879187A287B387F101848D958DA68DD5
:10312000B78DF20184879587A687B787F10184A5BB
:1031300095A5A6A5B7A5F201808B918BA28BB38B29
:10314000F10180A191A1A2A1B3A1F201848B958B81
:10315000A68BB78BDF91CF911F910F91FF90EF90CE
:10316000DF90CF90BF90AF909F908F907F906F90A7
:103170005F904F903F902F9008958091760A811133
:1031800003C081E08093760A8091C00A81112EC02D
:1031900081E08093C00A8091C10A9091C20AA091F7
:1031A000C30AB091C40A0197A105B105F9F4809151
:1031B000C50A8823D9F065E070E080E090E00E94C5
:1031C0007E019093C70A8093C60A40E050E0BA019E
:1031D0000E94470165E070E080E090E00E947E017F
:1031E0009093C70A8093C60A0E9413028091A80A8E
:1031F000811103C081E08093A80A8091A00A811107
:1032000003C081E08093A00A80916C0A811103C001
:1032100081E080936C0A8091B80A81112EC081E010
:103220008093B80A8091B90A9091BA0AA091BB0A1A
:10323000B091BC0A0197A105B105F9F48091BD0ACE
:103240008823D9F069E070E080E090E00E947E0180
:103250009093BF0A8093BE0A40E050E0BA010E94FA
:10326000470169E070E080E090E00E947E01909369
:10327000BF0A8093BE0A0E9413028091980A8111AE
:1032800003C081E08093980A8091900A811103C065
:1032900081E08093900A8091620A811103C081E0ED
:1032A0008093620A8091B00A81112EC081E08093E0
:1032B000B00A8091B10A9091B20AA091B30AB0917C
:1032C000B40A0197A105B105F9F48091B50A8823E4
:1032D000D9F06AE070E080E090E00E947E01909377
:1032E000B70A8093B60A40E050E0BA010E94470155
:1032F0006AE070E080E090E00E947E019093B70A5F
:103300008093B60A0E9413028091880A811103C03B
:1033100081E08093880A8091800A811103C081E056
:103320008093800A089560E070E080E89FE7089548
:1033300060E070E080E89FE7089560E070E080E87A
:103340009FEF089560E070E080E89FEF089560E0EF
:1033500070E080EC9FEF089560E070E080EC9FEFFC
:103360000895F5DF6093780B7093790B80937A0B57
:1033700090937B0BF1DF60936C0B70936D0B8093DC
:103380006E0B90936F0BCFDF6093740B7093750B84
:103390008093760B9093770BCBDF6093700B7093D9
:1033A000710B8093720B9093730BC7DF60937C0B50
:1033B00070937D0B80937E0B90937F0BC3DF6093A4
:1033C000800B7093810B8093820B9093830B0895F5
:1033D0004F925F926F927F928F929F92AF92BF9225
:1033E000CF92DF92EF92FF920F931F93F894409049
:1033F000590550905A0560905B0570905C05C0902F
:103400004D05D0904E05E0904F05F09050054130AD
:10341000510509F0A4C09B01AC01241935094609E6
:10342000570929013A01009155051091560520913F
:1034300057053091580548015901840C951CA61C6C
:10344000B71C80169106A206B306A0F400915105A0
:103450001091520520915305309154050F5F1F4F75
:103460002F4F3F4F00935105109352052093530562
:10347000309354058092550590925605A0925705B9
:10348000B0925805009151051091520520915305B5
:103490003091540580925D0590925E05A0925F0583
:1034A000B092600500936105109362052093630557
:1034B000309364056093590570935A0580935B05BA
:1034C00090935C05A8EEB3E0A30192010E948941AC
:1034D0006C0D7D1D8E1D9F1D60934D0570934E05D7
:1034E00080934F05909350050091D8021091D90216
:1034F0002091DA023091DB020F3F1F4F2F4F3F4FD9
:10350000F1F00091D8021091D9022091DA023091A5
:10351000DB020E3F1F4F2F4F3F4F89F0C090D80264
:10352000D090D902E090DA02F090DB0221E08C1416
:103530009D04AE04BF0408F420E02093690578944C
:103540001F910F91FF90EF90DF90CF90BF90AF90C1
:103550009F908F907F906F905F904F9008954B0158
:103560005C0184189508A608B708A3019201261BE0
:10357000370B480B590B6415750586059705D0F078
:1035800082169306A406B50640F420E030E0A901B7
:1035900081149104A104B10491F4A8EEB3E00E9457
:1035A0008941A7019601261B370B480B590BCA010D
:1035B000B901C5CF82169306A406B50670F7A8EE2A
:1035C000B3E0A50194010E9489416C0D7D1D8E1D03
:1035D0009F1DB5CFFDCECF93DF9300D01F92CDB707
:1035E000DEB71C821B821A82198210926505109226
:1035F00066051092670510926805BE016F5F7F4FE8
:10360000CE0103960E94383569817A818B819C8135
:103610000E947F2E009761F4BE016F5F7F4FCE0145
:1036200003960E94443569817A818B819C8127D5DC
:103630000F900F900F900F90DF91CF910895FF9210
:103640000F931F93CF93DF93082F60E070E0CB01BF
:103650000E94653BFF24F3940E94682DEC01892BA6
:1036600089F010E0CE3F8FEFD80769F0002361F1B9
:1036700060E070E0CB010E94653B81E090E0892B27
:1036800059F322C011E01ED5EC01892B21F0CE3F69
:103690008FEFD80759F711111EC011E0229609F4D7
:1036A00010E00E94182DEC01892B21F0CE3F8FEF06
:1036B000D807E1F6111111C011E0CE3F8FEFD80706
:1036C00009F410E001110BC0CE01DF91CF911F91E1
:1036D0000F91FF90089511E0E4CF11E0F3CF60E087
:1036E00070E0CB010E94653B1F25812F90E0C7CF82
:1036F000CF93DF931FD6D0E0C0E0892B71F06AE052
:1037000070E080E090E00E94653B81E098DF12D697
:103710002196C03D27E0D20781F711D60E94D32E13
:10372000109281051092800510927A0510927B0507
:1037300010927C0510927D05109276051092770507
:103740001092780510927905109272051092730507
:10375000109274051092750510926E0510926F0507
:10376000109270051092710510926A0510926B0507
:1037700010926C0510926D054EEF5FEF6FEF7FEFCB
:103780004093D8025093D9026093DA027093DB021F
:1037900010926905EDE5F5E028E0DF011D922A951C
:1037A000E9F71092590510925A0510925B05109294
:1037B0005C0510925505109256051092570510920F
:1037C000580510925105109252051092530510920F
:1037D000540510924D0510924E0510924F0510920F
:1037E0005005DF91CF91089510928D0510928E05AE
:1037F00010928F051092900510928C05809195057E
:103800009091960590938B0580938A051092890577
:1038100010928805109284051092850510928605F5
:1038200010928705109292051092910590E080E029
:103830000895CF92DF92EF92FF920F931F93CF9351
:103840008C01019709F055C020919505309196059E
:1038500080918A0590918B05409195055091960530
:1038600050938B0540938A052817390781F01092F1
:103870008905109288051092840510928505109292
:1038800086051092870510929205109291058091FD
:10389000950590919605019761F58091910590911C
:1038A0009205892B21F48091DC02811112C0809154
:1038B0009105909192050197E1F480918405909192
:1038C0008505A0918605B09187050197A105B105F1
:1038D00081F410928405109285051092860510924D
:1038E00087051092DC0282E090E09093920580932D
:1038F00091058091950590919605019709F01CC15D
:103900008091AB059091AC058017910709F014C127
:103910008091A7059091A805A091A905B091AA054D
:10392000009709F409C12091A60521110DC040910D
:10393000A7055091A8056091A9057091AA05452B8E
:10394000462B472B09F4F8C0209191053091920540
:103950002230310509F0F0C0209188052111ECC01A
:10396000FC01C080D180E280F38080918C058823A7
:1039700009F4D3C08091980590919905892B09F499
:10398000FEC0209198053091990581E022303105E3
:1039900009F080E02091980530919905C1E021302F
:1039A000310549F02091980530919905C1E0223008
:1039B000310509F0C0E0882309F456C02091A20522
:1039C0003091A3054091A4055091A505C701B6010A
:1039D0000E94863887FD14C02091A2053091A3056E
:1039E0004091A4055091A50560918D0570918E05BB
:1039F00080918F05909190050E944C3787FD22C0E1
:103A00002091A2053091A3054091A4055091A505F0
:103A1000C701B6010E948638181634F52091A20518
:103A20003091A3054091A4055091A50560918D05A5
:103A300070918E0580918F05909190050E944C3772
:103A4000811112C080919A0590919B05A0919C05CF
:103A5000B0919D05892B8A2B8B2B19F481E08093E3
:103A6000890581E080938805CC2309F456C0209114
:103A7000A2053091A3054091A4055091A505C70169
:103A8000B6010E944C3787FF14C02091A2053091E7
:103A9000A3054091A4055091A50560918D057091F5
:103AA0008E0580918F05909190050E94863887FF42
:103AB00022C02091A2053091A3054091A405509108
:103AC000A505C701B6010E944C37811126C020917F
:103AD000A2053091A3054091A4055091A5056091E0
:103AE0008D0570918E0580918F05909190050E94B3
:103AF0008638181694F480919A0590919B05A091B0
:103B00009C05B0919D05892B8A2B8B2B19F481E0A4
:103B10008093890581E08093880581E090918805F4
:103B2000911180E080938C05C0928D05D0928E0516
:103B3000E0928F05F09290050130110509F067C100
:103B40008091910590919205892BD9F41092970557
:103B5000109288058091DC02882379F082E090E061
:103B600090939205809391051092DC022091950527
:103B70003091960581E0232BE9F080E01BC081E0C5
:103B800009CF1092DC0280919705882349F01092AA
:103B90008905109292051092910510929705EDCF2C
:103BA0008091950590919605892BE1F0809188058B
:103BB00010928805209191053091920522303105AF
:103BC00009F45EC088F42115310509F448C021309C
:103BD000310509F4F3C010928905109288051092FE
:103BE000970538C081E0E6CF2330310509F4B1C034
:103BF0002430310581F7409184055091850560910D
:103C0000860570918705411551056105710561F0C3
:103C1000415051096109710940938405509385050C
:103C200060938605709387054091840550918505C2
:103C30006091860570918705452B462B472BD9F45B
:103C400020919305309194052130310509F046C04B
:103C50001092890510929205109291050CC08091E6
:103C6000DC02882341F082E090E0909392058093FB
:103C700091051092DC021092820580918905CEC0D8
:103C80008823C9F380919A0590919B05A0919C058A
:103C9000B0919D05181619061A061B060CF07DC07A
:103CA0008091950590919605019709F076C08091D5
:103CB0009A0590919B05A0919C05B0919D058093DC
:103CC000840590938505A0938605B093870583E0CE
:103CD00090E09093920580939105CDCF40919E0501
:103CE00050919F056091A0057091A105452B462B31
:103CF000472BA9F01092890580919E0590919F0510
:103D0000A091A005B091A1058093840590938505AD
:103D1000A0938605B093870581E090E0DACF8823F1
:103D200099F08091DD029091DE02A091DF02B091C6
:103D3000E0028093840590938505A0938605B09357
:103D4000870584E090E0C5CF1092890582E090E07D
:103D5000C0CF8091840590918505A0918605B09192
:103D600087050097A105B10559F00197A109B1098F
:103D70008093840590938505A0938605B09387056D
:103D80008091840590918505A0918605B091870565
:103D9000892B8A2B8B2B09F06ECF8091DD029091BD
:103DA000DE02A091DF02B091E002892B8A2B8B2BDF
:103DB00009F44ECF81E080938905B3CF409184050B
:103DC00050918505609186057091870541155105D3
:103DD0006105710561F04150510961097109409314
:103DE00084055093850560938605709387054091FF
:103DF0008405509185056091860570918705452B56
:103E0000462B472B09F037CF8111C7CF9FCF809129
:103E10008205882309F431CF80918305CF911F91CA
:103E20000F91FF90EF90DF90CF90089510928D0545
:103E300010928E0510928F051092900510928C05AD
:103E4000109292051092910510928B0510928A059E
:103E50001092AC051092AB0510928905109288055E
:103E600010928405109285051092860510928705A0
:103E700010928305109282051092A7051092A80552
:103E80001092A9051092AA051092A6051092A205FB
:103E90001092A3051092A4051092A50588EE93E058
:103EA000A0E0B0E08093DD029093DE02A093DF02F9
:103EB000B093E00210929E0510929F051092A0050B
:103EC0001092A10510929A0510929B0510929C05E4
:103ED00010929D05109299051092980581E08093AB
:103EE000DC0210929705109296051092950510929B
:103EF00094051092930590E080E0089580919505D7
:103F000090919605892B19F58091DC02882351F058
:103F100080919705811106C081E08093830580938D
:103F200082050895209197053091DC0281E090E0B0
:103F3000332311F090E080E030E082239323892B3B
:103F400021F01092830581E0EACF10928205089556
:103F500082E090E0FA01918380838FEF9FEF0895D4
:103F6000CF93DF93EA01009711F00E94E82F1982A6
:103F7000188290E080E0DF91CF910895DB010097F7
:103F800019F48FEF8C9308952EEF2C93FC013F963C
:103F9000EF30F10508F034C08827EE52F04E8F4F15
:103FA0000C948141FE1FFC1FFA1FF81FF61FF21F21
:103FB000F41FF01FEE1FEC1FE91FE51FE11FE71FB5
:103FC000002080E311968C93089589E2FBCF82E272
:103FD000F9CF11961C92089583E2F4CF81E2F2CFDB
:103FE00081E1F0CF87E2EECF8AE2ECCF80E1EACF49
:103FF00084E2E8CF88E2E6CF86E2E4CF81E3E2CF55
:1040000080E2E0CF8091B9059091BA050895909330
:10401000BA058093B90508958091B80508959091E7
:10402000B805892B8093B8050895982F90958091B5
:10403000B80589238093B80508958091B705089540
:104040008091B5059091B60508956115710559F0F7
:10405000FB0130E020E070E060E02417350719F044
:104060006115710511F0CB010895A081B181A817E8
:10407000B90709F4BF012F5F3F4F3696EECF80910D
:10408000BB0581111CC041D247D29093AE058093ED
:10409000AD050E945A290E946C299093B205809325
:1040A000B1050E94802C0E94872C9093B0058093CC
:1040B000AF0581E08093BB0590E080E0089584EF38
:1040C0009FEF08958F929F92AF92BF92CF92DF920F
:1040D000EF92FF920F931F93CF93DF9300D000D006
:1040E00000D01F92CDB7DEB71A86198618861F82B8
:1040F0001E821D821C821B821A8219828091BB053E
:1041000007EF1FEF882309F48BC08E010D5F1F4F4F
:104110009E012B5F3F4FAE01495F5F4FBE01675F5E
:104120007F4F90E080E00E94042E8C01009721F0E8
:104130000596029708F0C7C089859A85009709F40B
:10414000EFC0ED80FE802B813C812E0D3F1D4F8105
:1041500058854217530708F4E3C0E80EF91ED7014B
:104160004C912091B9053091BA05232B09F494C0E4
:10417000413F08F069C08CE1840F8D3008F483C0A2
:104180008DE2840F803108F481C088E3840F8B3086
:1041900008F47FC09EEBC92E9FE1D92EE8EAFFE12B
:1041A0006D817E81AE014F5F5F4F89859A8519953C
:1041B0005C01C114D104A1F189809A808114910419
:1041C00079F18B819C818815990508F484C010E0F1
:1041D00000E04B815C8170E060E0C7010E94AB4170
:1041E00001151105E9F449815A8169857A858D8126
:1041F0009E81680F791FC501F6011995E980FA8043
:104200000D811E812F81388549855A856FEF7FEF9B
:1042100081E090E00E949F2D8C01892B09F053C012
:10422000C8012A960FB6F894DEBF0FBECDBFDF914E
:10423000CF911F910F91FF90EF90DF90CF90BF90A3
:10424000AF909F908F90089530E020E0220F331FB1
:10425000F901E355FA4F0190F081E02D309709F410
:1042600099CF842F90E01995009709F493CFDC0142
:104270001296ED91FC9113971496CD90DC903097A7
:1042800009F08ECF1EC021E030E0E0CF22E030E028
:10429000DDCF23E030E0DACFD12CC12CE0EBFFE121
:1042A0004F3F09F07DCFE091AD05F091AE0530971D
:1042B00019F404EF1FEF0CC08FEF90E019950097F1
:1042C000B1F604EF1FEF89859A85009709F4A8CF0E
:1042D0000E94E82FA5CF0E94CE2E8C0189859A8559
:1042E0000E94E82F70E060E0C4010E94672E98876A
:1042F0008F830E949C2D9E838D836F8178856115AD
:10430000710559F0C8010E946C319A87898706EFC0
:104310001FEF892B09F05BCF5CCF08EF1FEF59CF60
:1043200008EF1FEFD0CF2091BB052111DAC787EF2F
:104330009FEF08958091B9059091BA0508950E9464
:104340008C2C0E94E62BEDD0EDEAF5E088E0DF0151
:104350001D928A95E9F71092BB0590E080E00895E0
:1043600086E090E0FA019183808390E080E00895F8
:1043700047E050E061E273E068CEDF92EF92FF9297
:104380000F931F93CF93DF938A01EC01C60FD71FC2
:10439000E090BF05F090C005D9800E94B62ED816D7
:1043A000190678F082E090E0F801918380838EEF27
:1043B0009FEFDF91CF911F910F91FF90EF90DF90D2
:1043C0000895EF2841F482E090E0F8019183808322
:1043D00084EF9FEFEECF89818093BE0590E0019638
:1043E000F8019183808390E080E0E3CFCF93DF9367
:1043F000EA010E94F92A882321F00E94C32E0E941C
:10440000FA2A82E090E0998388838BEF9FEFDF9117
:10441000CF910895CF93DF93EB0186E0FB011192DA
:104420008A95E9F78FEF8883F7DD898306DE8A8333
:1044300007DE9D838C83DF91CF910895CF93DF9327
:10444000EA010E94FC2A811109C082E090E0998370
:10445000888385EF9FEFDF91CF91089590E080E012
:10446000D6DD81E090E09983888390E080E0F3CF0F
:104470000F931F93CF93DF93EA018C01060F171F51
:104480000E94FC2A81110BC082E090E0998388830E
:1044900085EF9FEFDF91CF911F910F910895F80164
:1044A0008181823038F082E090E0998388838EEFBA
:1044B0009FEFF0CF81E090E0AADD88E090E0998363
:1044C000888390E080E0E6CFCF93DF930097D1F42C
:1044D000EB01FB01329686E0DF011D928A95E9F738
:1044E0008FEF888385E089831A820E94B62E8B83A2
:1044F0000E94B52E9D838C8381E08E838F83DF9114
:10450000CF910895DF91CF9139CD88EB91E29093CF
:10451000BD058093BC0508958091BC059091BD05B3
:1045200008951092BD051092BC0508958091BF05B5
:104530009091C0050895411105C06115710581056F
:10454000910561F06093BF057093C0058093C1052C
:104550009093C2054093C30581E0089580E00895DB
:10456000FF920F931F93CF93DF938A01EC01C60F45
:10457000D71FF9800E94B62EF816190668F082E05F
:1045800090E0F801918380838EEF9FEFDF91CF91D0
:104590001F910F91FF9008956C817D818E819F8185
:1045A0004B81C9DF811108C082E090E0F80191835E
:1045B000808384EF9FEFEACF89818093BE0590E0EE
:1045C0000196F8019183808390E080E0DFCFCF9364
:1045D000DF93EA01FC01E60FF71F64817581868194
:1045E00097814381A8DF811109C082E090E099831F
:1045F000888384EF9FEFDF91CF91089581E090E071
:104600009983888390E080E0F6CFEFEBF5E040817E
:10461000518162817381480F511D611D711D40835D
:104620005183628373830895CF93C091BE054C2F4D
:1046300050E06091BF057091C00501960E94A241B3
:104640008C2FE3DF1092BE05CF910895009799F467
:104650008091BF059091C0052FEFFB012083892B2E
:1046600059F02091BE0530E02F5F3F4F24173507EA
:1046700019F4CB01D9CF82CC0895009799F4809199
:10468000BF059091C0052FEFFB012083892B59F0C6
:104690002091BE0530E02F5F3F4F2417350719F4F6
:1046A000CB01C2CF6BCC08952DE0AC01249FC0019B
:1046B000259F900D1124E091C805F091C905E80FE0
:1046C000F91F238134812250310981E022303105E4
:1046D00008F080E008950F931F93CF93DF9300912C
:1046E000CA051091CB05D0E0C0E080E00C171D0793
:1046F00049F491E0811190E0892FDF91CF911F91D2
:104700000F9108958111F5CFCE01CEDF2196EECF26
:10471000A091C805B091C905109729F12091CA054B
:104720003091CB0582179307F0F45DE0589F90011C
:10473000599F300D1124A20FB31FED91FC911197D9
:10474000309789F012968C91681768F485E0689F1D
:10475000E00DF11D112480819181892B21F081E0F0
:104760009281491708F080E00895EF92FF920F932D
:104770001F93CF93DF93EA01FC01E60FF71F02813D
:104780001381E480F5804F2D6E2DC801C1DF8111AA
:104790000DC082E090E0998388838EEF9FEFDF91D8
:1047A000CF911F910F91FF90EF900895C8017CDF8A
:1047B000882339F082E090E09983888388EF9FEF27
:1047C000EECF1093E8020093E702E092E902F09244
:1047D000EA0281E090E09983888390E080E0DFCF77
:1047E000CF92DF92EF92FF920F931F93CF93DF93BD
:1047F0007A01EC01C60FD71FC090E702D090E80203
:104800000091E9021091EA02412F602FC60180DF7A
:10481000811110C082E090E0F701918380838AEFDC
:104820009FEFDF91CF911F910F91FF90EF90DF905D
:10483000CF900895C60138DF882341F082E090E0F0
:10484000F7019183808388EF9FEFEBCF4C815D81EF
:104850006E817F819A8189818F3F41F082E090E073
:10486000F701918380838EEF9FEFDBCFEDE0EC9D2E
:104870009001ED9D300D1124E091C805F091C9051E
:10488000E20FF31F0190F081E02D25E0029FE00D83
:10489000F11D11240190F081E02D27E0129FE00D21
:1048A000F11D1124808391838B8182834383548300
:1048B000658376831F5F1093EA0281E090E0F70141
:1048C0009183808390E080E0ACCFEF92FF920F93D2
:1048D0001F93CF93DF937A018C01060F171FC091AE
:1048E000C805D091C905209781F021E030E0F8019A
:1048F000828193814091CA055091CB058417950719
:1049000010F030E020E0232B71F482E090E0F7011A
:10491000918380838EEF9FEFDF91CF911F910F9155
:10492000FF90EF9008954DE0489F9001499F300D12
:104930001124C20FD31FB8DE882341F082E090E03B
:10494000F7019183808388EF9FEFE6CFF801248100
:10495000358120383105C8F687818111D6CF418154
:10496000842F90E08F7E009741F082E090E0F70185
:104970009183808386EF9FEFCFCF4F833E832D833C
:10498000268128871986223010F421E0288721E02B
:1049900030E0F70131832083BFCF88E090E0FA0157
:1049A0009183808390E080E00895FB018FEF808306
:1049B00081E181838FEF9FEF9383828380E890E092
:1049C00095838483168217820895FB018FEF80837D
:1049D00091E0918382839383848384E3858381E060
:1049E00090E09783868308954BE050E06BE473E09A
:1049F0002CCB8F929F92BF92CF92DF92EF92FF9239
:104A00000F931F93CF93DF93EA01FC01E60FF71F8B
:104A1000828193810481B580E091C805F091C90538
:104A2000309791F482E090E0998388838CEF9FEF38
:104A3000DF91CF911F910F91FF90EF90DF90CF907A
:104A4000BF909F908F9008952091CA053091CB051B
:104A50008217930738F082E090E0998388838EEF85
:104A60009FEFE6CF2DE0289F6001299FD00C1124F5
:104A7000EC0DFD1DE080F180E114F10499F28281DA
:104A8000081748F785E0089F80011124E00EF11E09
:104A9000F70180819181892B29F6BB20E1F2F7E0B3
:104AA000BF9E40011124C4010E949A2FF7019183F7
:104AB0008083E091C805F091C905EC0DFD1D0190C2
:104AC000F081E02DE00FF11F80819181009739F492
:104AD00082E090E0998388838DEF9FEFA9CFA401B6
:104AE00070E060E00E94AB418091C8059091C905DB
:104AF000C80ED91EF60180819181080F191FF80197
:104B0000B28281E090E09983888390E080E090CF4A
:104B1000AF92BF92CF92DF92FF920F931F93CF93EA
:104B2000DF93EA01FC01E60FF71F82819381F48095
:104B30000091C8051091C9050115110581F482E0A5
:104B400090E0998388838CEF9FEFDF91CF911F9145
:104B50000F91FF90DF90CF90BF90AF90089520917C
:104B6000CA053091CB058217930738F082E090E0B8
:104B7000998388838EEF9FEFE8CF2FEF2F0D2C3F87
:104B8000A8F72DE0289F6001299FD00C11240C0D5F
:104B90001D1DF80180819181892B89F6F5E0FF9E2A
:104BA00050011124C5010E949A2FF801918380833E
:104BB000E091C805F091C905EC0DFD1D8081918142
:104BC000009739F482E090E0998388838DEF9FEF1E
:104BD000BCCFA50170E060E00E94AB41E091C80548
:104BE000F091C905EC0DFD1DF28281E090E0998302
:104BF000888390E080E0A9CFCF92DF92EF92FF927E
:104C00000F931F93CF93DF93860F971FFC010281B1
:104C100013818091C8059091C905892B81F082E0AC
:104C200090E0FA01918380838CEF9FEFDF91CF9129
:104C30001F910F91FF90EF90DF90CF900895C801E2
:104C4000B0E0A0E00197A109B1098F3F9F4FA105F6
:104C5000B10540F082E090E0FA01918380838EEF0D
:104C60009FEFE4CF7A018DE0809F6001819FD00C9F
:104C70001124C6010E949A2FEC01009741F482E0B2
:104C800090E0F701918380838DEF9FEFCFCFA60156
:104C900070E060E00E94AB41D093C905C093C805A5
:104CA0001093CB050093CA0590E080E02FEF3FEF13
:104CB0008017910741F481E090E0F70191838083B0
:104CC00090E080E0B3CF3C872B8701962D96F0CF04
:104CD000CF92DF92EF92FF920F931F93CF93DF93C8
:104CE000EC01D12CC12C10E000E0F12CE12C8A81E8
:104CF0008017110609F0BCF4AE01455F5F4F63E019
:104D000070E0C7010E941430009721F02FEF3FEFB1
:104D10003C872B87DF91CF911F910F91FF90EF90F0
:104D2000DF90CF900895E881F981EC0DFD1D23817E
:104D30003481C90101960115110519F44F8144FD13
:104D4000049661E070E0C3D7E816F90608F47C0128
:104D50000F5F1F4F85E0C80ED11CC9CFF89420917A
:104D6000C6053091C70581E02115310509F080E0C5
:104D7000232B09F0789408954F925F926F927F925F
:104D80008F929F92AF92BF92CF92DF92EF92FF925B
:104D90000F931F93CF93DF933C01660E771EF301B1
:104DA000828193814C01B12CA12CC091C805D09176
:104DB000C905209769F021E030E06091CA05709143
:104DC000CB058617970710F030E020E0232BC1F4C5
:104DD00082E090E0FA01918380838EEF9FEFDF9174
:104DE000CF911F910F91FF90EF90DF90CF90BF90E8
:104DF000AF909F908F907F906F905F904F900895AD
:104E00008092EB029092EC02A092ED02B092EE0240
:104E10006DE0689F9001699F300D1124C20FD31F70
:104E2000F3018181833040F082E090E0FA019183C8
:104E3000808386EF9FEFD3CF2A012B813C81232BE8
:104E4000F1F4288139819F8191FF2EC0232B09F431
:104E500064C02091CD059A81422F490F5527551FD7
:104E6000BA0141E050E06138710514F050E040E0D3
:104E7000452B09F452C02A87920F9093CD0581509B
:104E8000823008F476C06ADF882309F4C7C0F301D2
:104E90008181813009F480C008F470C0823009F447
:104EA000B5C090E080E090C0232BB9F12091CC05F3
:104EB0009A81E22FE90FFF27FF1F41E050E0ED3F0D
:104EC000F10514F050E040E0452B39F12A87920FAC
:104ED0009093CC05D4CFA081B181A20FB31F1196BE
:104EE0006C91060F111D0196295F3F4F841795079E
:104EF00094F3C114D104C9F48F8184FF16C035D74F
:104F000021E0A8014B5F5F4F8417950708F420E06C
:104F1000A7014B5F5F4F21110EC082E090E0F201CC
:104F20009183808387EF9FEF5ACF1FD721E0A8019D
:104F30004F5F5F4FE9CF88819981E80EF91EF70135
:104F400014830383FFEFCF1ADF0A7A018A818C155D
:104F50001D0409F00CF497CFE881F981EE0DFF1DD7
:104F6000428150E030E020E010E000E090E080E09E
:104F7000BDCFF12CE12CD12CC12CE8CF81E090E009
:104F80009C838B83A8DB882309F48BCF81E090E09E
:104F90003ED880E44AD885CF8B859C85019651F018
:104FA00083E090E09C838B8382E090E030D880E4C3
:104FB00036D877CF22E082169104A104B1047CF4A4
:104FC000CE0186DE009761F3789422E030E0F201B2
:104FD00031832083892BF9F08DEF9FEF00CF2D8156
:104FE0003E818091E1029091E20228173907C1F6D3
:104FF0006091E5027091E602AE01455F5F4F8091DE
:10500000E3029091E4020E942B31DCCF82E090E039
:105010009C838B8346CF90E080E0E1CE82E090E0FD
:10502000F2019183808385EF9FEFD9CE8F929F927B
:10503000AF92BF92CF92DF92EF92FF920F931F93A6
:10504000CF93DF93EA018C01060F171FF8018181CE
:10505000833098F082E090E09983888386EF9FEF19
:10506000DF91CF911F910F91FF90EF90DF90CF9044
:10507000BF90AF909F908F9008958091C8059091B8
:10508000C905892B61F081E090E02091CA0530913B
:10509000CB05232B11F490E080E0892B39F482E0DA
:1050A00090E0998388838EEF9FEFDACF57DE8823D5
:1050B00009F4D6C0F8018181813009F48CC0E8F090
:1050C000823099F42091CA053091CB05E091C80552
:1050D000F091C90590E080E041E050E028173907E1
:1050E00009F0B4C0F8DA811117C0789481E090E03B
:1050F0009983888390E080E0B3CF2091CA053091F6
:10510000CB05E091C805F091C90590E080E041E051
:1051100050E02817390741F481E090E00E94072011
:1051200080E40E941520E1CF63817481672B11F028
:105130005483438301963D96ECCFE091C805F091EE
:10514000C905E00FF11F238134812230310569F454
:10515000238534852F3F3F4F41F422E0C216D1040E
:10516000E104F1040CF5CF01B3DD4FEFC41AD40A0A
:10517000E40AF40A035F1F4F4091CA055091CB0522
:1051800070E060E0C416D506E606F70664F5009701
:10519000A1F27894892B09F4A9CF82E090E0998359
:1051A00088838DEF9FEF5CCF458156812091E1028E
:1051B0003091E20242175307C1F6AF01455F5F4FDE
:1051C0006091E5027091E6028091E3029091E40221
:1051D0000E942B31CACF10E000E090E080E0C12CAB
:1051E000D12C7601C9CF0097A1F610E000E0812C08
:1051F000912C540183E0E82EF12C1AC0E091C805EF
:10520000F091C905E00FF11F83819481029749F461
:10521000F482E38282E090E00E94072080E40E9412
:105220000F208FEF881A980AA80AB80A035F1F4F49
:105230008091CA059091CB05B0E0A0E08816990650
:10524000AA06BB06DCF290E080E0A3CF6381748104
:105250006230710511F45483438301963D963ECF2D
:1052600082E090E09983888385EF9FEFF9CE0097E5
:10527000B9F48FEFFB0180832091EB023091EC02B7
:105280004DE0429FC001439F900D1124E091C8055D
:10529000F091C905E80FF91F8285FB01818308950C
:1052A0000C94BE1F88E090E0FA019183808390E027
:1052B00080E008951092C7051092C605E8ECF5E06D
:1052C00086E0DF011D928A95E9F784EF94E29093DE
:1052D000C5058093C40508958091C4059091C505C6
:1052E00008952F923F924F925F926F927F928F928A
:1052F0009F92AF92BF92CF92DF92EF92FF920F9365
:105300001F93CF93DF93CDB7DEB762970FB6F894B4
:10531000DEBF0FBECDBFF8942091C6053091C70502
:105320002F5F3F4F3093C7052093C6057894209197
:10533000C8053091C9053B832A83232B09F456C144
:105340002091CA053091CB05232B09F44FC14D871D
:105350005E876F87788B9C878B878A819B819A8BEE
:10536000898BD12CC12C198210E000E08091CA05F4
:105370009091CB05C816D90618F43981332329F149
:10538000F8948091C6059091C70501979093C70541
:105390008093C6057894C80162960FB6F894DEBF74
:1053A0000FBECDBFDF91CF911F910F91FF90EF9076
:1053B000DF90CF90BF90AF909F908F907F906F9035
:1053C0005F904F903F902F900895B60190E080E05D
:1053D0002AD38887A989BA8917968C91179781FD56
:1053E0008DC013968D919C911497039709F086C0F8
:1053F0001596ED91FC91FF83EE832B853C85E2179A
:10540000F30709F07BC0712C612C512C412C63C037
:1054100093D39A87898710E04114510431F4A98904
:10542000BA8917961C9112951170A989BA89ED91C4
:10543000FC91E60DF71D23803480111169C0BFEF88
:105440002B1A3B0A61E070E0C10141D45C01A989DB
:10545000BA891B968D919C918F3F980709F45CC087
:10546000B5013AD74C01009709F4BBC0E985FA852C
:10547000E80FF91FA989BA891A968C91840D808347
:1054800011114DC08F010F5F1F4F8091E10290916C
:10549000E202AE81BF81A817B90709F09DC081E083
:1054A00090E0B885BB2311F090E080E071010985A0
:1054B0001A859501A401B6019195819591093FD373
:1054C0008C01892B11F0C40183D58FEF481A580A3B
:1054D00095E0690E711CA989BA8912968C91841580
:1054E000150429F024F0B981BB2309F491CFE88594
:1054F000EE2321F0B60190E080E097D2FFEFCF1AC3
:10550000DF0A29893A89235F3F4F3A8B298B2ECFB7
:10551000E5E02E0E311C96CFC5010CD5A3CF8D85AD
:105520009E85AF85B88981839283A383B4838F01DD
:105530000B5F1F4FAACFE080F180EC81FD81EE0E62
:10554000FF1ED70113966D917C9114978C918F3F1C
:10555000E1F1E1E0F0E002C0EE0FFF1F8A95E2F713
:10556000CF01092E000CAA0BBB0BFB01408151811E
:105570006281738184239523A623B72321E0892B9D
:105580008A2B8B2B09F420E0D8012C93D70111969C
:105590008C91080F111DEA81FB813196FB83EA8310
:1055A0002C813D81295F3F4F3D832C83A989BA8996
:1055B000ED91FC91E60DF71D82812A813B818217D6
:1055C000130611F00CF0B7CF6ACFF701418150E01C
:1055D000C8010E94A241DACF1D821C821B821A825E
:1055E000E5CF31E0398306EF1FEF6FCF10E000E029
:1055F000C7CEB4CB789408952F923F924F925F928A
:105600006F927F929F92AF92BF92CF92DF92EF9272
:10561000FF920F931F93CF93DF9300D000D0CDB7AD
:10562000DEB70091C8051091C9059924939401151E
:10563000110509F43EC0A090CA05B090CB058EDBE1
:10564000982E8823B1F11092C9051092C8051092C6
:10565000CB051092CA051092CC051092CD058FEFA4
:105660009FEFDC018093EB029093EC02A093ED029C
:10567000B093EE0278947BD31E830D83C12CD12C82
:105680007601C501B0E0A0E089839A83AB83BC8337
:1056900022242A94322C89819A81AB81BC81C8163C
:1056A000D906EA06FB06F4F0C80192D480E40E9411
:1056B0001520892D26960FB6F894DEBF0FBECDBFFC
:1056C000DF91CF911F910F91FF90EF90DF90CF90DE
:1056D000BF90AF909F907F906F905F904F903F9062
:1056E0002F900895AD81BE8192E0C916D104E104E6
:1056F000F1040CF51B968D919C918F3F980709F052
:105700002BD5ED81FE8134862386ED81FE8180815B
:105710009181B12CA12C412C512C3201892B59F5AE
:10572000BFEFCB1ADB0AEB0AFB0AED81FE813D9647
:10573000FE83ED83B0CF15962D913C911697809105
:10574000E1029091E20228173907F9F61B968D9134
:105750009C91B0D5DACF8A0D9B1DDC018D919C9177
:10576000009709F035D4BFEF4B1A5B0A6B0A7B0A2E
:10577000E5E0AE0EB11CAD81BE818D919C9111977B
:1057800012964C9150E070E060E0441655066606B3
:1057900077060CF31DD4C4CFCF93DF93EA012CDF3F
:1057A000811109C082E090E09983888385EF9FEFA3
:1057B000DF91CF91089581E090E00E94072081E081
:1057C00090E09983888390E080E0F2CF15DF10921B
:1057D000C5051092C405089542E050E06DE873E0FD
:1057E0000C942520FF920F931F93CF93DF938A0190
:1057F000EC01C60FD71FF980B9D20897F816190621
:1058000071F068F082E090E0F801918380838EEF80
:105810009FEFDF91CF911F910F91FF9008956C81C1
:105820007D818E819F814B810E949B22811108C0C6
:1058300082E090E0F8019183808384EF9FEFE9CFCD
:10584000F9800E9496224F2D50E0BE01685F7F4F85
:105850000E94A24189810E94052381E090E0F80125
:105860009183808390E080E0D4CFDF92EF92FF922B
:105870000F931F93CF93DF938A01EC01C60FD71FBD
:105880000E9496227C01D98071D2DD2059F00297C6
:1058900021E030E0D816190619F010F030E020E0D1
:1058A000232B79F482E090E0F801918380838EEFDE
:1058B0009FEFDF91CF911F910F91FF90EF90DF90BD
:1058C0000895EF2841F482E090E0F801918380830D
:1058D00084EF9FEFEECFF9800E9496224F2D50E08B
:1058E000BE016E5F7F4F0E94A24189810E94052305
:1058F00081E090E0F8019183808390E080E0D9CF4F
:105900008CEE9BE29093CF058093CE050895809115
:10591000CE059091CF0508950895FC011182108263
:10592000938382830895DB011D921C92DC01129601
:10593000ED91FC9113977183608313967C936E9322
:1059400012970895FC0180819181DB018D939C93D6
:10595000A081B181109741F08D919C9191838083BA
:10596000892B11F4F383E2830895FC0180819181F6
:10597000DB018D939C93892B11F473836283718374
:1059800060830895FC0111821082938382830895BD
:10599000CF93DF931F921F92CDB7DEB71A82198281
:1059A000F894BE016F5F7F4F85ED95E0CBDF898175
:1059B0009A81009709F00CD389819A81892B89F704
:1059C000BE016F5F7F4F89ED95E0BCDF89819A81D1
:1059D000009709F0FDD289819A81892B89F7789403
:1059E0000F900F90DF91CF910895CF93DF931F9287
:1059F0001F92CDB7DEB71A821982F894BE016F5F8D
:105A00007F4F81ED95E09EDF89819A81009709F0B3
:105A1000DFD289819A81892B89F778940F900F9032
:105A2000DF91CF91089581E0089590E080E008959E
:105A3000EF92FF920F931F93CF93DF931F921F92CA
:105A4000CDB7DEB71A8219828091D00507EF1FEF1C
:105A50008823A1F1F894BE016F5F7F4F89ED95E037
:105A600071DF789489819A81EE24E394F12C892B5B
:105A700051F4F894BE016F5F7F4F85ED95E062DFD2
:105A80007894F12CE12C89819A810EEF1FEF009719
:105A9000A9F0FC014281538164E070E01DD68C01C5
:105AA000892B61F0F89469817A81C701880F991F69
:105AB000880F991F8B529A4F58DF7894C8010F9026
:105AC0000F90DF91CF911F910F91FF90EF9008956C
:105AD0000F931F93CF93DF9300D01F92CDB7DEB704
